{
    "contractName": "SpaceCoin",
    "abi": [
        {
            "inputs": [],
            "stateMutability": "nonpayable",
            "type": "constructor"
        },
        {
            "anonymous": false,
            "inputs": [
                {
                    "indexed": true,
                    "internalType": "address",
                    "name": "owner",
                    "type": "address"
                },
                {
                    "indexed": true,
                    "internalType": "address",
                    "name": "spender",
                    "type": "address"
                },
                {
                    "indexed": false,
                    "internalType": "uint256",
                    "name": "value",
                    "type": "uint256"
                }
            ],
            "name": "Approval",
            "type": "event"
        },
        {
            "anonymous": false,
            "inputs": [
                {
                    "indexed": true,
                    "internalType": "address",
                    "name": "from",
                    "type": "address"
                },
                {
                    "indexed": true,
                    "internalType": "address",
                    "name": "to",
                    "type": "address"
                },
                {
                    "indexed": false,
                    "internalType": "uint256",
                    "name": "value",
                    "type": "uint256"
                }
            ],
            "name": "Transfer",
            "type": "event"
        },
        {
            "inputs": [],
            "name": "DefiRouter",
            "outputs": [
                {
                    "internalType": "address",
                    "name": "",
                    "type": "address"
                }
            ],
            "stateMutability": "view",
            "type": "function"
        },
        {
            "inputs": [
                {
                    "internalType": "address",
                    "name": "owner",
                    "type": "address"
                },
                {
                    "internalType": "address",
                    "name": "spender",
                    "type": "address"
                }
            ],
            "name": "allowance",
            "outputs": [
                {
                    "internalType": "uint256",
                    "name": "",
                    "type": "uint256"
                }
            ],
            "stateMutability": "view",
            "type": "function"
        },
        {
            "inputs": [
                {
                    "internalType": "address",
                    "name": "spender",
                    "type": "address"
                },
                {
                    "internalType": "uint256",
                    "name": "amount",
                    "type": "uint256"
                }
            ],
            "name": "approve",
            "outputs": [
                {
                    "internalType": "bool",
                    "name": "",
                    "type": "bool"
                }
            ],
            "stateMutability": "nonpayable",
            "type": "function"
        },
        {
            "inputs": [
                {
                    "internalType": "address",
                    "name": "account",
                    "type": "address"
                }
            ],
            "name": "balanceOf",
            "outputs": [
                {
                    "internalType": "uint256",
                    "name": "",
                    "type": "uint256"
                }
            ],
            "stateMutability": "view",
            "type": "function"
        },
        {
            "inputs": [],
            "name": "decimals",
            "outputs": [
                {
                    "internalType": "uint8",
                    "name": "",
                    "type": "uint8"
                }
            ],
            "stateMutability": "pure",
            "type": "function"
        },
        {
            "inputs": [
                {
                    "internalType": "address",
                    "name": "spender",
                    "type": "address"
                },
                {
                    "internalType": "uint256",
                    "name": "subtractedValue",
                    "type": "uint256"
                }
            ],
            "name": "decreaseAllowance",
            "outputs": [
                {
                    "internalType": "bool",
                    "name": "",
                    "type": "bool"
                }
            ],
            "stateMutability": "nonpayable",
            "type": "function"
        },
        {
            "inputs": [
                {
                    "internalType": "address",
                    "name": "spender",
                    "type": "address"
                },
                {
                    "internalType": "uint256",
                    "name": "addedValue",
                    "type": "uint256"
                }
            ],
            "name": "increaseAllowance",
            "outputs": [
                {
                    "internalType": "bool",
                    "name": "",
                    "type": "bool"
                }
            ],
            "stateMutability": "nonpayable",
            "type": "function"
        },
        {
            "inputs": [
                {
                    "internalType": "address",
                    "name": "_tokenOwner",
                    "type": "address"
                },
                {
                    "internalType": "address",
                    "name": "_spender",
                    "type": "address"
                },
                {
                    "internalType": "uint256",
                    "name": "_amount",
                    "type": "uint256"
                }
            ],
            "name": "increaseDRoutAllowance",
            "outputs": [
                {
                    "internalType": "bool",
                    "name": "",
                    "type": "bool"
                }
            ],
            "stateMutability": "nonpayable",
            "type": "function"
        },
        {
            "inputs": [],
            "name": "name",
            "outputs": [
                {
                    "internalType": "string",
                    "name": "",
                    "type": "string"
                }
            ],
            "stateMutability": "view",
            "type": "function"
        },
        {
            "inputs": [
                {
                    "internalType": "address",
                    "name": "_DefiRouter",
                    "type": "address"
                }
            ],
            "name": "setRouter",
            "outputs": [],
            "stateMutability": "nonpayable",
            "type": "function"
        },
        {
            "inputs": [],
            "name": "symbol",
            "outputs": [
                {
                    "internalType": "string",
                    "name": "",
                    "type": "string"
                }
            ],
            "stateMutability": "view",
            "type": "function"
        },
        {
            "inputs": [],
            "name": "tokenOwner",
            "outputs": [
                {
                    "internalType": "address",
                    "name": "",
                    "type": "address"
                }
            ],
            "stateMutability": "view",
            "type": "function"
        },
        {
            "inputs": [],
            "name": "totalSupply",
            "outputs": [
                {
                    "internalType": "uint256",
                    "name": "",
                    "type": "uint256"
                }
            ],
            "stateMutability": "view",
            "type": "function"
        },
        {
            "inputs": [
                {
                    "internalType": "address",
                    "name": "to",
                    "type": "address"
                },
                {
                    "internalType": "uint256",
                    "name": "amount",
                    "type": "uint256"
                }
            ],
            "name": "transfer",
            "outputs": [
                {
                    "internalType": "bool",
                    "name": "",
                    "type": "bool"
                }
            ],
            "stateMutability": "nonpayable",
            "type": "function"
        },
        {
            "inputs": [
                {
                    "internalType": "address",
                    "name": "from",
                    "type": "address"
                },
                {
                    "internalType": "address",
                    "name": "to",
                    "type": "address"
                },
                {
                    "internalType": "uint256",
                    "name": "amount",
                    "type": "uint256"
                }
            ],
            "name": "transferFrom",
            "outputs": [
                {
                    "internalType": "bool",
                    "name": "",
                    "type": "bool"
                }
            ],
            "stateMutability": "nonpayable",
            "type": "function"
        }
    ],
    "bytecode": "60806040523480156200001157600080fd5b506040518060400160405280600981526020016829b830b1b2a1b7b4b760b91b8152506040518060400160405280600381526020016253504360e81b81525081600390816200006191906200020b565b5060046200007082826200020b565b5050600580546001600160a01b031916339081179091556200009691506103e86200009c565b620002ff565b6001600160a01b038216620000f75760405162461bcd60e51b815260206004820152601f60248201527f45524332303a206d696e7420746f20746865207a65726f206164647265737300604482015260640160405180910390fd5b80600260008282546200010b9190620002d7565b90915550506001600160a01b038216600081815260208181526040808320805486019055518481527fddf252ad1be2c89b69c2b068fc378daa952ba7f163c4a11628f55a4df523b3ef910160405180910390a35050565b505050565b634e487b7160e01b600052604160045260246000fd5b600181811c908216806200019257607f821691505b602082108103620001b357634e487b7160e01b600052602260045260246000fd5b50919050565b601f8211156200016257600081815260208120601f850160051c81016020861015620001e25750805b601f850160051c820191505b818110156200020357828155600101620001ee565b505050505050565b81516001600160401b0381111562000227576200022762000167565b6200023f816200023884546200017d565b84620001b9565b602080601f8311600181146200027757600084156200025e5750858301515b600019600386901b1c1916600185901b17855562000203565b600085815260208120601f198616915b82811015620002a85788860151825594840194600190910190840162000287565b5085821015620002c75787850151600019600388901b60f8161c191681555b5050505050600190811b01905550565b80820180821115620002f957634e487b7160e01b600052601160045260246000fd5b92915050565b610a48806200030f6000396000f3fe608060405234801561001057600080fd5b50600436106100f55760003560e01c806373942f0a11610097578063a457c2d711610066578063a457c2d714610204578063a9059cbb14610217578063c0d786551461022a578063dd62ed3e1461023f57600080fd5b806373942f0a146101ab57806395d89b41146101be578063a0433022146101c6578063a3e67610146101f157600080fd5b806323b872dd116100d357806323b872dd1461014d578063313ce56714610160578063395093511461016f57806370a082311461018257600080fd5b806306fdde03146100fa578063095ea7b31461011857806318160ddd1461013b575b600080fd5b610102610252565b60405161010f9190610892565b60405180910390f35b61012b6101263660046108fc565b6102e4565b604051901515815260200161010f565b6002545b60405190815260200161010f565b61012b61015b366004610926565b6102fe565b6040516012815260200161010f565b61012b61017d3660046108fc565b610322565b61013f610190366004610962565b6001600160a01b031660009081526020819052604090205490565b61012b6101b9366004610926565b610344565b6101026103b2565b6006546101d9906001600160a01b031681565b6040516001600160a01b03909116815260200161010f565b6005546101d9906001600160a01b031681565b61012b6102123660046108fc565b6103c1565b61012b6102253660046108fc565b61043c565b61023d610238366004610962565b61044a565b005b61013f61024d366004610984565b610525565b606060038054610261906109b7565b80601f016020809104026020016040519081016040528092919081815260200182805461028d906109b7565b80156102da5780601f106102af576101008083540402835291602001916102da565b820191906000526020600020905b8154815290600101906020018083116102bd57829003601f168201915b5050505050905090565b6000336102f2818585610550565b60019150505b92915050565b60003361030c858285610674565b6103178585856106ee565b506001949350505050565b6000336102f28185856103358383610525565b61033f91906109f1565b610550565b6006546000906001600160a01b031633146103985760405162461bcd60e51b815260206004820152600f60248201526e2737ba102232b334902937baba32b960891b60448201526064015b60405180910390fd5b6103a88484846103353330610525565b5060019392505050565b606060048054610261906109b7565b600033816103cf8286610525565b90508381101561042f5760405162461bcd60e51b815260206004820152602560248201527f45524332303a2064656372656173656420616c6c6f77616e63652062656c6f77604482015264207a65726f60d81b606482015260840161038f565b6103178286868403610550565b6000336102f28185856106ee565b6005546001600160a01b031633146104b65760405162461bcd60e51b815260206004820152602960248201527f2055736572206973206e6f74206f776e6572206f66207468652053706163654360448201526837b4b7103a37b5b2b760b91b606482015260840161038f565b6006546001600160a01b0316156105035760405162461bcd60e51b81526020600482015260116024820152707772697474656e206f6e6c79206f6e636560781b604482015260640161038f565b600680546001600160a01b0319166001600160a01b0392909216919091179055565b6001600160a01b03918216600090815260016020908152604080832093909416825291909152205490565b6001600160a01b0383166105b25760405162461bcd60e51b8152602060048201526024808201527f45524332303a20617070726f76652066726f6d20746865207a65726f206164646044820152637265737360e01b606482015260840161038f565b6001600160a01b0382166106135760405162461bcd60e51b815260206004820152602260248201527f45524332303a20617070726f766520746f20746865207a65726f206164647265604482015261737360f01b606482015260840161038f565b6001600160a01b0383811660008181526001602090815260408083209487168084529482529182902085905590518481527f8c5be1e5ebec7d5bd14f71427d1e84f3dd0314c0f7b2291e5b200ac8c7c3b925910160405180910390a3505050565b60006106808484610525565b905060001981146106e857818110156106db5760405162461bcd60e51b815260206004820152601d60248201527f45524332303a20696e73756666696369656e7420616c6c6f77616e6365000000604482015260640161038f565b6106e88484848403610550565b50505050565b6001600160a01b0383166107525760405162461bcd60e51b815260206004820152602560248201527f45524332303a207472616e736665722066726f6d20746865207a65726f206164604482015264647265737360d81b606482015260840161038f565b6001600160a01b0382166107b45760405162461bcd60e51b815260206004820152602360248201527f45524332303a207472616e7366657220746f20746865207a65726f206164647260448201526265737360e81b606482015260840161038f565b6001600160a01b0383166000908152602081905260409020548181101561082c5760405162461bcd60e51b815260206004820152602660248201527f45524332303a207472616e7366657220616d6f756e7420657863656564732062604482015265616c616e636560d01b606482015260840161038f565b6001600160a01b03848116600081815260208181526040808320878703905593871680835291849020805487019055925185815290927fddf252ad1be2c89b69c2b068fc378daa952ba7f163c4a11628f55a4df523b3ef910160405180910390a36106e8565b600060208083528351808285015260005b818110156108bf578581018301518582016040015282016108a3565b506000604082860101526040601f19601f8301168501019250505092915050565b80356001600160a01b03811681146108f757600080fd5b919050565b6000806040838503121561090f57600080fd5b610918836108e0565b946020939093013593505050565b60008060006060848603121561093b57600080fd5b610944846108e0565b9250610952602085016108e0565b9150604084013590509250925092565b60006020828403121561097457600080fd5b61097d826108e0565b9392505050565b6000806040838503121561099757600080fd5b6109a0836108e0565b91506109ae602084016108e0565b90509250929050565b600181811c908216806109cb57607f821691505b6020821081036109eb57634e487b7160e01b600052602260045260246000fd5b50919050565b808201808211156102f857634e487b7160e01b600052601160045260246000fdfea2646970667358221220284cc4e34a2eb2060149dc2533215a07133b412e77ebd44e893cba324ce8d26364736f6c63430008100033",
    "sourcePath": "/home/neosoft/project/DEFIex/contracts/SpaceCoin.sol",
    "compiler": {
        "name": "solc",
        "version": "0.8.16+commit.07a7930e"
    },
    "functionHashes": {
        "DefiRouter()": "a0433022",
        "allowance(address,address)": "dd62ed3e",
        "approve(address,uint256)": "095ea7b3",
        "balanceOf(address)": "70a08231",
        "decimals()": "313ce567",
        "decreaseAllowance(address,uint256)": "a457c2d7",
        "increaseAllowance(address,uint256)": "39509351",
        "increaseDRoutAllowance(address,address,uint256)": "73942f0a",
        "name()": "06fdde03",
        "setRouter(address)": "c0d78655",
        "symbol()": "95d89b41",
        "tokenOwner()": "a3e67610",
        "totalSupply()": "18160ddd",
        "transfer(address,uint256)": "a9059cbb",
        "transferFrom(address,address,uint256)": "23b872dd"
    },
    "gasEstimates": {
        "creation": {
            "codeDepositCost": "526400",
            "executionCost": "infinite",
            "totalCost": "infinite"
        },
        "external": {
            "DefiRouter()": "2404",
            "allowance(address,address)": "infinite",
            "approve(address,uint256)": "24651",
            "balanceOf(address)": "2629",
            "decimals()": "222",
            "decreaseAllowance(address,uint256)": "26972",
            "increaseAllowance(address,uint256)": "infinite",
            "increaseDRoutAllowance(address,address,uint256)": "infinite",
            "name()": "infinite",
            "setRouter(address)": "28915",
            "symbol()": "infinite",
            "tokenOwner()": "2426",
            "totalSupply()": "2349",
            "transfer(address,uint256)": "51094",
            "transferFrom(address,address,uint256)": "infinite"
        }
    }
}