{
  "contractName": "DeFiRouter",
  "abi": [
    {
      "anonymous": false,
      "inputs": [
        {
          "indexed": true,
          "internalType": "address",
          "name": "previousOwner",
          "type": "address"
        },
        {
          "indexed": true,
          "internalType": "address",
          "name": "newOwner",
          "type": "address"
        }
      ],
      "name": "OwnershipTransferred",
      "type": "event"
    },
    {
      "inputs": [],
      "name": "liquidityPool",
      "outputs": [
        {
          "internalType": "contract LiquidityPool",
          "name": "",
          "type": "address"
        }
      ],
      "stateMutability": "view",
      "type": "function"
    },
    {
      "inputs": [],
      "name": "owner",
      "outputs": [
        {
          "internalType": "address",
          "name": "",
          "type": "address"
        }
      ],
      "stateMutability": "view",
      "type": "function"
    },
    {
      "inputs": [],
      "name": "renounceOwnership",
      "outputs": [],
      "stateMutability": "nonpayable",
      "type": "function"
    },
    {
      "inputs": [],
      "name": "spaceCoin",
      "outputs": [
        {
          "internalType": "contract SpaceCoin",
          "name": "",
          "type": "address"
        }
      ],
      "stateMutability": "view",
      "type": "function"
    },
    {
      "inputs": [
        {
          "internalType": "address",
          "name": "newOwner",
          "type": "address"
        }
      ],
      "name": "transferOwnership",
      "outputs": [],
      "stateMutability": "nonpayable",
      "type": "function"
    },
    {
      "inputs": [
        {
          "internalType": "contract LiquidityPool",
          "name": "_liquidityPool",
          "type": "address"
        }
      ],
      "name": "setLiquidityPoolAddress",
      "outputs": [],
      "stateMutability": "nonpayable",
      "type": "function"
    },
    {
      "inputs": [
        {
          "internalType": "contract SpaceCoin",
          "name": "_spaceCoin",
          "type": "address"
        }
      ],
      "name": "setSpaceCoinAddress",
      "outputs": [],
      "stateMutability": "nonpayable",
      "type": "function"
    },
    {
      "inputs": [
        {
          "internalType": "uint256",
          "name": "_spcAmount",
          "type": "uint256"
        }
      ],
      "name": "addLiquidity",
      "outputs": [],
      "stateMutability": "payable",
      "type": "function"
    },
    {
      "inputs": [],
      "name": "removeLiquidity",
      "outputs": [],
      "stateMutability": "nonpayable",
      "type": "function"
    },
    {
      "inputs": [
        {
          "internalType": "uint256",
          "name": "_spcAmount",
          "type": "uint256"
        }
      ],
      "name": "tokenSwap",
      "outputs": [],
      "stateMutability": "payable",
      "type": "function"
    }
  ],
  "bytecode": "0x608060405234801561001057600080fd5b5061002d61002261003260201b60201c565b61003a60201b60201c565b6100fe565b600033905090565b60008060009054906101000a900473ffffffffffffffffffffffffffffffffffffffff169050816000806101000a81548173ffffffffffffffffffffffffffffffffffffffff021916908373ffffffffffffffffffffffffffffffffffffffff1602179055508173ffffffffffffffffffffffffffffffffffffffff168173ffffffffffffffffffffffffffffffffffffffff167f8be0079c531659141344cd1fd0a4f28419497f9722a3daafe3b4186f6b6457e060405160405180910390a35050565b61118c8061010d6000396000f3fe6080604052600436106100915760003560e01c806367b9a2861161005957806367b9a2861461014b578063715018a6146101625780638da5cb5b14610179578063e48575d4146101a4578063f2fde38b146101cf57610091565b80632280b7a81461009657806351c6590a146100b25780635325d806146100ce57806363986aba146100f7578063665a11ca14610120575b600080fd5b6100b060048036038101906100ab9190610bc2565b6101f8565b005b6100cc60048036038101906100c79190610bc2565b610401565b005b3480156100da57600080fd5b506100f560048036038101906100f09190610c5f565b6106e8565b005b34801561010357600080fd5b5061011e60048036038101906101199190610cca565b6107c5565b005b34801561012c57600080fd5b506101356108a2565b6040516101429190610d56565b60405180910390f35b34801561015757600080fd5b506101606108c8565b005b34801561016e57600080fd5b50610177610957565b005b34801561018557600080fd5b5061018e61096b565b60405161019b9190610d80565b60405180910390f35b3480156101b057600080fd5b506101b9610994565b6040516101c69190610dbc565b60405180910390f35b3480156101db57600080fd5b506101f660048036038101906101f19190610e03565b6109ba565b005b6000600160009054906101000a900473ffffffffffffffffffffffffffffffffffffffff1673ffffffffffffffffffffffffffffffffffffffff166373942f0a3330856040518463ffffffff1660e01b815260040161025993929190610e3f565b6020604051808303816000875af1158015610278573d6000803e3d6000fd5b505050506040513d601f19601f8201168201806040525081019061029c9190610eae565b9050806102a857600080fd5b600160009054906101000a900473ffffffffffffffffffffffffffffffffffffffff1673ffffffffffffffffffffffffffffffffffffffff166323b872dd33600260009054906101000a900473ffffffffffffffffffffffffffffffffffffffff16856040518463ffffffff1660e01b815260040161032993929190610e3f565b6020604051808303816000875af1158015610348573d6000803e3d6000fd5b505050506040513d601f19601f8201168201806040525081019061036c9190610eae565b50600260009054906101000a900473ffffffffffffffffffffffffffffffffffffffff1673ffffffffffffffffffffffffffffffffffffffff1663d004f0f73433856040518463ffffffff1660e01b81526004016103cb929190610edb565b6000604051808303818588803b1580156103e457600080fd5b505af11580156103f8573d6000803e3d6000fd5b50505050505050565b6000600160009054906101000a900473ffffffffffffffffffffffffffffffffffffffff1673ffffffffffffffffffffffffffffffffffffffff166370a08231336040518263ffffffff1660e01b815260040161045e9190610d80565b602060405180830381865afa15801561047b573d6000803e3d6000fd5b505050506040513d601f19601f8201168201806040525081019061049f9190610f19565b116104df576040517f08c379a00000000000000000000000000000000000000000000000000000000081526004016104d690610fa3565b60405180910390fd5b6000600160009054906101000a900473ffffffffffffffffffffffffffffffffffffffff1673ffffffffffffffffffffffffffffffffffffffff166373942f0a3330856040518463ffffffff1660e01b815260040161054093929190610e3f565b6020604051808303816000875af115801561055f573d6000803e3d6000fd5b505050506040513d601f19601f820116820180604052508101906105839190610eae565b90508061058f57600080fd5b600160009054906101000a900473ffffffffffffffffffffffffffffffffffffffff1673ffffffffffffffffffffffffffffffffffffffff166323b872dd33600260009054906101000a900473ffffffffffffffffffffffffffffffffffffffff16856040518463ffffffff1660e01b815260040161061093929190610e3f565b6020604051808303816000875af115801561062f573d6000803e3d6000fd5b505050506040513d601f19601f820116820180604052508101906106539190610eae565b50600260009054906101000a900473ffffffffffffffffffffffffffffffffffffffff1673ffffffffffffffffffffffffffffffffffffffff16634bb12dfb3484336040518463ffffffff1660e01b81526004016106b2929190610fc3565b6000604051808303818588803b1580156106cb57600080fd5b505af11580156106df573d6000803e3d6000fd5b50505050505050565b6106f0610a3d565b600073ffffffffffffffffffffffffffffffffffffffff16600160009054906101000a900473ffffffffffffffffffffffffffffffffffffffff1673ffffffffffffffffffffffffffffffffffffffff1614610781576040517f08c379a000000000000000000000000000000000000000000000000000000000815260040161077890611038565b60405180910390fd5b80600160006101000a81548173ffffffffffffffffffffffffffffffffffffffff021916908373ffffffffffffffffffffffffffffffffffffffff16021790555050565b6107cd610a3d565b600073ffffffffffffffffffffffffffffffffffffffff16600260009054906101000a900473ffffffffffffffffffffffffffffffffffffffff1673ffffffffffffffffffffffffffffffffffffffff161461085e576040517f08c379a000000000000000000000000000000000000000000000000000000000815260040161085590611038565b60405180910390fd5b80600260006101000a81548173ffffffffffffffffffffffffffffffffffffffff021916908373ffffffffffffffffffffffffffffffffffffffff16021790555050565b600260009054906101000a900473ffffffffffffffffffffffffffffffffffffffff1681565b600260009054906101000a900473ffffffffffffffffffffffffffffffffffffffff1673ffffffffffffffffffffffffffffffffffffffff1663639f59c6336040518263ffffffff1660e01b81526004016109239190610d80565b600060405180830381600087803b15801561093d57600080fd5b505af1158015610951573d6000803e3d6000fd5b50505050565b61095f610a3d565b6109696000610abb565b565b60008060009054906101000a900473ffffffffffffffffffffffffffffffffffffffff16905090565b600160009054906101000a900473ffffffffffffffffffffffffffffffffffffffff1681565b6109c2610a3d565b600073ffffffffffffffffffffffffffffffffffffffff168173ffffffffffffffffffffffffffffffffffffffff1603610a31576040517f08c379a0000000000000000000000000000000000000000000000000000000008152600401610a28906110ca565b60405180910390fd5b610a3a81610abb565b50565b610a45610b7f565b73ffffffffffffffffffffffffffffffffffffffff16610a6361096b565b73ffffffffffffffffffffffffffffffffffffffff1614610ab9576040517f08c379a0000000000000000000000000000000000000000000000000000000008152600401610ab090611136565b60405180910390fd5b565b60008060009054906101000a900473ffffffffffffffffffffffffffffffffffffffff169050816000806101000a81548173ffffffffffffffffffffffffffffffffffffffff021916908373ffffffffffffffffffffffffffffffffffffffff1602179055508173ffffffffffffffffffffffffffffffffffffffff168173ffffffffffffffffffffffffffffffffffffffff167f8be0079c531659141344cd1fd0a4f28419497f9722a3daafe3b4186f6b6457e060405160405180910390a35050565b600033905090565b600080fd5b6000819050919050565b610b9f81610b8c565b8114610baa57600080fd5b50565b600081359050610bbc81610b96565b92915050565b600060208284031215610bd857610bd7610b87565b5b6000610be684828501610bad565b91505092915050565b600073ffffffffffffffffffffffffffffffffffffffff82169050919050565b6000610c1a82610bef565b9050919050565b6000610c2c82610c0f565b9050919050565b610c3c81610c21565b8114610c4757600080fd5b50565b600081359050610c5981610c33565b92915050565b600060208284031215610c7557610c74610b87565b5b6000610c8384828501610c4a565b91505092915050565b6000610c9782610c0f565b9050919050565b610ca781610c8c565b8114610cb257600080fd5b50565b600081359050610cc481610c9e565b92915050565b600060208284031215610ce057610cdf610b87565b5b6000610cee84828501610cb5565b91505092915050565b6000819050919050565b6000610d1c610d17610d1284610bef565b610cf7565b610bef565b9050919050565b6000610d2e82610d01565b9050919050565b6000610d4082610d23565b9050919050565b610d5081610d35565b82525050565b6000602082019050610d6b6000830184610d47565b92915050565b610d7a81610c0f565b82525050565b6000602082019050610d956000830184610d71565b92915050565b6000610da682610d23565b9050919050565b610db681610d9b565b82525050565b6000602082019050610dd16000830184610dad565b92915050565b610de081610c0f565b8114610deb57600080fd5b50565b600081359050610dfd81610dd7565b92915050565b600060208284031215610e1957610e18610b87565b5b6000610e2784828501610dee565b91505092915050565b610e3981610b8c565b82525050565b6000606082019050610e546000830186610d71565b610e616020830185610d71565b610e6e6040830184610e30565b949350505050565b60008115159050919050565b610e8b81610e76565b8114610e9657600080fd5b50565b600081519050610ea881610e82565b92915050565b600060208284031215610ec457610ec3610b87565b5b6000610ed284828501610e99565b91505092915050565b6000604082019050610ef06000830185610d71565b610efd6020830184610e30565b9392505050565b600081519050610f1381610b96565b92915050565b600060208284031215610f2f57610f2e610b87565b5b6000610f3d84828501610f04565b91505092915050565b600082825260208201905092915050565b7f546f6b656e206e6f7420617661696c61626c6500000000000000000000000000600082015250565b6000610f8d601383610f46565b9150610f9882610f57565b602082019050919050565b60006020820190508181036000830152610fbc81610f80565b9050919050565b6000604082019050610fd86000830185610e30565b610fe56020830184610d71565b9392505050565b7f7772697474656e206f6e6c79206f6e6365000000000000000000000000000000600082015250565b6000611022601183610f46565b915061102d82610fec565b602082019050919050565b6000602082019050818103600083015261105181611015565b9050919050565b7f4f776e61626c653a206e6577206f776e657220697320746865207a65726f206160008201527f6464726573730000000000000000000000000000000000000000000000000000602082015250565b60006110b4602683610f46565b91506110bf82611058565b604082019050919050565b600060208201905081810360008301526110e3816110a7565b9050919050565b7f4f776e61626c653a2063616c6c6572206973206e6f7420746865206f776e6572600082015250565b6000611120602083610f46565b915061112b826110ea565b602082019050919050565b6000602082019050818103600083015261114f81611113565b905091905056fea2646970667358221220c24a74986802b0e009ca98b7618db9971e1199acb0d4708dc4a79ec5a4818b6a64736f6c634300080f0033",
  "immutableReferences": {},
  "source": "// SPDX-License-Identifier: MIT\npragma solidity >=0.4.22 <0.9.0;\n\nimport \"./SpaceCoin.sol\";\nimport \"./LiquidityPool.sol\";\nimport \"../ERC20 /Ownable.sol\";\n\ncontract DeFiRouter is Ownable{\n    //instance of spacecoin token contract\n    SpaceCoin public spaceCoin;\n    //instance of liquidity Pool Contract\n    LiquidityPool public liquidityPool;\n    \n    /*********************************************************************************\n     *@notice set the Liquidity Pool contract address to Router\n     *\n     *@dev developer needs to pass address of Liquidity Pool  contract\n     *\n     *@param _liquidityPool address of the Liquidity Pool contract\n     *\n     *Requirements\n     * only owner able to call and set the address of Liquidity Pool contract\n     * address should be created only once after deploying contract\n     */    \n    function setLiquidityPoolAddress(LiquidityPool _liquidityPool) external onlyOwner{\n        require(address(liquidityPool)== address(0), \"written only once\");\n        liquidityPool = _liquidityPool;\n    }\n\n    /*********************************************************************************\n     *@notice set the SpaceCoin token contract address to Router\n     *\n     *@dev developer needs to pass address of SpaceCoin  contract\n     *\n     *@param _spaceCoin address of the SpaceCoin contract\n     *\n     *Requirements\n     *\n     * only owner able to call and set the address of SpaceCoin contract\n     * address should be created only once after deploying contract\n     */\n    function setSpaceCoinAddress(SpaceCoin _spaceCoin) external onlyOwner{\n        require(address(spaceCoin)== address(0),\"written only once\");\n        spaceCoin = _spaceCoin;\n    }\n\n    /*********************************************************************************\n     *@notice This function add Liquidity to the Liquidity Pool\n     *\n     *@param _spcAmount  aamount of SpaceCoin added to the liquidity Pool\n     *\n     *msg.sender should have Ether for Liquidity Pool\n     *msg.sender should have SpaceCoin for Liquidity Pool\n     */\n    function addLiquidity(uint256 _spcAmount) external payable{\n        require(spaceCoin.balanceOf(msg.sender)> 0,\"Token not available\");\n\n        bool success = spaceCoin.increaseDRoutAllowance(msg.sender, address(this), _spcAmount);\n        require(success);\n\n        spaceCoin.transferFrom(msg.sender, address(liquidityPool), _spcAmount);\n        liquidityPool.depositfunds{value : msg.value}(_spcAmount,msg.sender);\n    }\n    \n    /*********************************************************************************\n     *@notice This function pulls the Liquidity \n     *\n     * msg.sender must be the Liquidity provider.\n     **/\n    function removeLiquidity() external{\n        liquidityPool.withdrawfunds(msg.sender);\n    }\n\n    /**********************************************************************************\n     *@notice This function swap the Ether with SpaceCoin Token or Vice a versa\n     *\n     *@dev developer needs to pass SpaceCoin for SpaceCoin to Ether Swap \n     *     or pass Ether for Ether to Spacecoin Swap\n     *\n     *@param _spcAmount amount of spaceCoin Token to swap\n     *\n     **/\n    function tokenSwap(uint256 _spcAmount) external payable{\n        bool success = spaceCoin.increaseDRoutAllowance(msg.sender, address(this), _spcAmount);\n        require(success);\n\n        spaceCoin.transferFrom(msg.sender, address(liquidityPool), _spcAmount);\n        liquidityPool.swap{value:msg.value}(msg.sender, _spcAmount);\n    }\n    \n    \n\n}",
  "sourcePath": "/home/neosoft/project/DEFIex/contracts/DeFiRouter.sol",
  "compiler": {
    "name": "solc",
    "version": "0.8.15+commit.e14f2714.Emscripten.clang"
  },
  "schemaVersion": "3.4.8",
  "updatedAt": "2022-09-14T07:52:32.739Z",
  "devdoc": {
    "kind": "dev",
    "methods": {
      "owner()": {
        "details": "Returns the address of the current owner."
      },
      "renounceOwnership()": {
        "details": "Leaves the contract without owner. It will not be possible to call `onlyOwner` functions anymore. Can only be called by the current owner. NOTE: Renouncing ownership will leave the contract without an owner, thereby removing any functionality that is only available to the owner."
      },
      "transferOwnership(address)": {
        "details": "Transfers ownership of the contract to a new account (`newOwner`). Can only be called by the current owner."
      }
    },
    "version": 1
  },
  "userdoc": {
    "kind": "user",
    "methods": {},
    "version": 1
  }
}