{
  "contractName": "LiquidityPool",
  "abi": [
    {
      "anonymous": false,
      "inputs": [
        {
          "indexed": true,
          "internalType": "address",
          "name": "_account",
          "type": "address"
        }
      ],
      "name": "Addliquidity",
      "type": "event"
    },
    {
      "anonymous": false,
      "inputs": [
        {
          "indexed": true,
          "internalType": "address",
          "name": "previousOwner",
          "type": "address"
        },
        {
          "indexed": true,
          "internalType": "address",
          "name": "newOwner",
          "type": "address"
        }
      ],
      "name": "OwnershipTransferred",
      "type": "event"
    },
    {
      "anonymous": false,
      "inputs": [
        {
          "indexed": true,
          "internalType": "address",
          "name": "_account",
          "type": "address"
        }
      ],
      "name": "Removeliquidity",
      "type": "event"
    },
    {
      "anonymous": false,
      "inputs": [
        {
          "indexed": true,
          "internalType": "address",
          "name": "_account",
          "type": "address"
        },
        {
          "indexed": false,
          "internalType": "uint256",
          "name": "_tradeEther",
          "type": "uint256"
        },
        {
          "indexed": false,
          "internalType": "uint256",
          "name": "_tradeSpCoin",
          "type": "uint256"
        }
      ],
      "name": "TokenTrade",
      "type": "event"
    },
    {
      "inputs": [],
      "name": "lptoken",
      "outputs": [
        {
          "internalType": "contract LpToken",
          "name": "",
          "type": "address"
        }
      ],
      "stateMutability": "view",
      "type": "function"
    },
    {
      "inputs": [],
      "name": "owner",
      "outputs": [
        {
          "internalType": "address",
          "name": "",
          "type": "address"
        }
      ],
      "stateMutability": "view",
      "type": "function"
    },
    {
      "inputs": [],
      "name": "renounceOwnership",
      "outputs": [],
      "stateMutability": "nonpayable",
      "type": "function"
    },
    {
      "inputs": [],
      "name": "spaceCoin",
      "outputs": [
        {
          "internalType": "contract SpaceCoin",
          "name": "",
          "type": "address"
        }
      ],
      "stateMutability": "view",
      "type": "function"
    },
    {
      "inputs": [
        {
          "internalType": "address",
          "name": "newOwner",
          "type": "address"
        }
      ],
      "name": "transferOwnership",
      "outputs": [],
      "stateMutability": "nonpayable",
      "type": "function"
    },
    {
      "inputs": [
        {
          "internalType": "contract LpToken",
          "name": "_lptoken",
          "type": "address"
        }
      ],
      "name": "setLPTokenAddress",
      "outputs": [],
      "stateMutability": "nonpayable",
      "type": "function"
    },
    {
      "inputs": [],
      "name": "getReserves",
      "outputs": [
        {
          "internalType": "uint256",
          "name": "",
          "type": "uint256"
        },
        {
          "internalType": "uint256",
          "name": "",
          "type": "uint256"
        }
      ],
      "stateMutability": "view",
      "type": "function"
    },
    {
      "inputs": [
        {
          "internalType": "contract SpaceCoin",
          "name": "_spaceCoin",
          "type": "address"
        }
      ],
      "name": "setSpCoinAddress",
      "outputs": [],
      "stateMutability": "nonpayable",
      "type": "function"
    },
    {
      "inputs": [
        {
          "internalType": "address",
          "name": "_account",
          "type": "address"
        },
        {
          "internalType": "uint256",
          "name": "_spcAmount",
          "type": "uint256"
        }
      ],
      "name": "swap",
      "outputs": [],
      "stateMutability": "payable",
      "type": "function"
    },
    {
      "inputs": [
        {
          "internalType": "uint256",
          "name": "_spcAmount",
          "type": "uint256"
        },
        {
          "internalType": "address",
          "name": "_account",
          "type": "address"
        }
      ],
      "name": "depositfunds",
      "outputs": [],
      "stateMutability": "payable",
      "type": "function"
    },
    {
      "inputs": [
        {
          "internalType": "address",
          "name": "_account",
          "type": "address"
        }
      ],
      "name": "withdrawfunds",
      "outputs": [],
      "stateMutability": "nonpayable",
      "type": "function"
    }
  ],
  "bytecode": "0x608060405234801561001057600080fd5b5061002d61002261003260201b60201c565b61003a60201b60201c565b6100fe565b600033905090565b60008060009054906101000a900473ffffffffffffffffffffffffffffffffffffffff169050816000806101000a81548173ffffffffffffffffffffffffffffffffffffffff021916908373ffffffffffffffffffffffffffffffffffffffff1602179055508173ffffffffffffffffffffffffffffffffffffffff168173ffffffffffffffffffffffffffffffffffffffff167f8be0079c531659141344cd1fd0a4f28419497f9722a3daafe3b4186f6b6457e060405160405180910390a35050565b611aa58061010d6000396000f3fe60806040526004361061009c5760003560e01c80638da5cb5b116100645780638da5cb5b14610152578063d004f0f71461017d578063e48575d414610199578063f2fde38b146101c4578063f363393b146101ed578063f42ebbe0146102185761009c565b80630902f1ac146100a15780634bb12dfb146100cd578063573d0eef146100e9578063639f59c614610112578063715018a61461013b575b600080fd5b3480156100ad57600080fd5b506100b6610241565b6040516100c49291906111a0565b60405180910390f35b6100e760048036038101906100e29190611258565b610252565b005b3480156100f557600080fd5b50610110600480360381019061010b91906112d6565b61043a565b005b34801561011e57600080fd5b5061013960048036038101906101349190611303565b610517565b005b34801561014757600080fd5b50610150610905565b005b34801561015e57600080fd5b50610167610919565b604051610174919061133f565b60405180910390f35b6101976004803603810190610192919061135a565b610942565b005b3480156101a557600080fd5b506101ae610c20565b6040516101bb91906113f9565b60405180910390f35b3480156101d057600080fd5b506101eb60048036038101906101e69190611303565b610c46565b005b3480156101f957600080fd5b50610202610cc9565b60405161020f9190611435565b60405180910390f35b34801561022457600080fd5b5061023f600480360381019061023a919061148e565b610cef565b005b600080600354600454915091509091565b600080600160009054906101000a900473ffffffffffffffffffffffffffffffffffffffff1673ffffffffffffffffffffffffffffffffffffffff166370a08231846040518263ffffffff1660e01b81526004016102b0919061133f565b602060405180830381865afa1580156102cd573d6000803e3d6000fd5b505050506040513d601f19601f820116820180604052508101906102f191906114d0565b9050600034905060008211156103425761033b6003548383610313919061152c565b61031d91906115b5565b600454848861032c919061152c565b61033691906115b5565b610dcc565b9250610359565b6103568582610351919061152c565b610de5565b92505b600160009054906101000a900473ffffffffffffffffffffffffffffffffffffffff1673ffffffffffffffffffffffffffffffffffffffff166340c10f1985856040518363ffffffff1660e01b81526004016103b69291906115e6565b600060405180830381600087803b1580156103d057600080fd5b505af11580156103e4573d6000803e3d6000fd5b505050508373ffffffffffffffffffffffffffffffffffffffff167f849592496cf4faf2b1ca61853227d943c7787bdf2634d1654558e93d26ef1f8d60405160405180910390a2610433610f92565b5050505050565b61044261103d565b600073ffffffffffffffffffffffffffffffffffffffff16600260009054906101000a900473ffffffffffffffffffffffffffffffffffffffff1673ffffffffffffffffffffffffffffffffffffffff16146104d3576040517f08c379a00000000000000000000000000000000000000000000000000000000081526004016104ca9061166c565b60405180910390fd5b80600260006101000a81548173ffffffffffffffffffffffffffffffffffffffff021916908373ffffffffffffffffffffffffffffffffffffffff16021790555050565b6000600160009054906101000a900473ffffffffffffffffffffffffffffffffffffffff1673ffffffffffffffffffffffffffffffffffffffff166370a08231836040518263ffffffff1660e01b8152600401610574919061133f565b602060405180830381865afa158015610591573d6000803e3d6000fd5b505050506040513d601f19601f820116820180604052508101906105b591906114d0565b9050600081036105fa576040517f08c379a00000000000000000000000000000000000000000000000000000000081526004016105f1906116d8565b60405180910390fd5b6000600160009054906101000a900473ffffffffffffffffffffffffffffffffffffffff1673ffffffffffffffffffffffffffffffffffffffff166318160ddd6040518163ffffffff1660e01b8152600401602060405180830381865afa158015610669573d6000803e3d6000fd5b505050506040513d601f19601f8201168201806040525081019061068d91906114d0565b9050600081836003546106a0919061152c565b6106aa91906115b5565b9050600082846004546106bd919061152c565b6106c791906115b5565b9050600160009054906101000a900473ffffffffffffffffffffffffffffffffffffffff1673ffffffffffffffffffffffffffffffffffffffff16639dc29fac86866040518363ffffffff1660e01b81526004016107269291906115e6565b600060405180830381600087803b15801561074057600080fd5b505af1158015610754573d6000803e3d6000fd5b5050505060008573ffffffffffffffffffffffffffffffffffffffff168360405161077e90611729565b60006040518083038185875af1925050503d80600081146107bb576040519150601f19603f3d011682016040523d82523d6000602084013e6107c0565b606091505b505090506000600260009054906101000a900473ffffffffffffffffffffffffffffffffffffffff1673ffffffffffffffffffffffffffffffffffffffff1663a9059cbb88856040518363ffffffff1660e01b81526004016108239291906115e6565b6020604051808303816000875af1158015610842573d6000803e3d6000fd5b505050506040513d601f19601f820116820180604052508101906108669190611776565b90508180156108725750805b6108b1576040517f08c379a00000000000000000000000000000000000000000000000000000000081526004016108a8906117ef565b60405180910390fd5b8673ffffffffffffffffffffffffffffffffffffffff167f585628be90651057c5f706831b04eded021d87f2f5814f35c6c0232a5a99629b60405160405180910390a26108fc610f92565b50505050505050565b61090d61103d565b61091760006110bb565b565b60008060009054906101000a900473ffffffffffffffffffffffffffffffffffffffff16905090565b6000600454600354610954919061152c565b90506000803403610af2576000600260009054906101000a900473ffffffffffffffffffffffffffffffffffffffff1673ffffffffffffffffffffffffffffffffffffffff166370a08231306040518263ffffffff1660e01b81526004016109bc919061133f565b602060405180830381865afa1580156109d9573d6000803e3d6000fd5b505050506040513d601f19601f820116820180604052508101906109fd91906114d0565b9050600084600454610a0f919061180f565b9050818114610a53576040517f08c379a0000000000000000000000000000000000000000000000000000000008152600401610a4a906118b1565b60405180910390fd5b60008285610a6191906115b5565b905080600354610a7191906118d1565b935060008773ffffffffffffffffffffffffffffffffffffffff1685604051610a9990611729565b60006040518083038185875af1925050503d8060008114610ad6576040519150601f19603f3d011682016040523d82523d6000602084013e610adb565b606091505b5050905080610ae957600080fd5b50505050610bc2565b600034600354610b02919061180f565b83610b0d91906115b5565b905080600454610b1d91906118d1565b9150600260009054906101000a900473ffffffffffffffffffffffffffffffffffffffff1673ffffffffffffffffffffffffffffffffffffffff1663a9059cbb86846040518363ffffffff1660e01b8152600401610b7c9291906115e6565b6020604051808303816000875af1158015610b9b573d6000803e3d6000fd5b505050506040513d601f19601f82011682018060405250810190610bbf9190611776565b50505b8373ffffffffffffffffffffffffffffffffffffffff167f7c0ab2086e70eee23a2a6ef5f86a200cb144b64896b8af0e3e73e8bda18890603485604051610c0a9291906111a0565b60405180910390a2610c1a610f92565b50505050565b600260009054906101000a900473ffffffffffffffffffffffffffffffffffffffff1681565b610c4e61103d565b600073ffffffffffffffffffffffffffffffffffffffff168173ffffffffffffffffffffffffffffffffffffffff1603610cbd576040517f08c379a0000000000000000000000000000000000000000000000000000000008152600401610cb490611977565b60405180910390fd5b610cc6816110bb565b50565b600160009054906101000a900473ffffffffffffffffffffffffffffffffffffffff1681565b610cf761103d565b600073ffffffffffffffffffffffffffffffffffffffff16600160009054906101000a900473ffffffffffffffffffffffffffffffffffffffff1673ffffffffffffffffffffffffffffffffffffffff1614610d88576040517f08c379a0000000000000000000000000000000000000000000000000000000008152600401610d7f906119e3565b60405180910390fd5b80600160006101000a81548173ffffffffffffffffffffffffffffffffffffffff021916908373ffffffffffffffffffffffffffffffffffffffff16021790555050565b6000818310610ddb5781610ddd565b825b905092915050565b6000808203610df75760009050610f8d565b60006001905060008390506000608082901c1115610e1e57608081901c9050604082901b91505b6000604082901c1115610e3a57604081901c9050602082901b91505b6000602082901c1115610e5657602081901c9050601082901b91505b6000601082901c1115610e7257601081901c9050600882901b91505b6000600882901c1115610e8e57600881901c9050600482901b91505b6000600482901c1115610eaa57600481901c9050600282901b91505b6000600282901c1115610ebf57600182901b91505b6001828581610ed157610ed0611586565b5b048301901c91506001828581610eea57610ee9611586565b5b048301901c91506001828581610f0357610f02611586565b5b048301901c91506001828581610f1c57610f1b611586565b5b048301901c91506001828581610f3557610f34611586565b5b048301901c91506001828581610f4e57610f4d611586565b5b048301901c91506001828581610f6757610f66611586565b5b048301901c9150610f8882838681610f8257610f81611586565b5b04610dcc565b925050505b919050565b47600381905550600260009054906101000a900473ffffffffffffffffffffffffffffffffffffffff1673ffffffffffffffffffffffffffffffffffffffff166370a08231306040518263ffffffff1660e01b8152600401610ff4919061133f565b602060405180830381865afa158015611011573d6000803e3d6000fd5b505050506040513d601f19601f8201168201806040525081019061103591906114d0565b600481905550565b61104561117f565b73ffffffffffffffffffffffffffffffffffffffff16611063610919565b73ffffffffffffffffffffffffffffffffffffffff16146110b9576040517f08c379a00000000000000000000000000000000000000000000000000000000081526004016110b090611a4f565b60405180910390fd5b565b60008060009054906101000a900473ffffffffffffffffffffffffffffffffffffffff169050816000806101000a81548173ffffffffffffffffffffffffffffffffffffffff021916908373ffffffffffffffffffffffffffffffffffffffff1602179055508173ffffffffffffffffffffffffffffffffffffffff168173ffffffffffffffffffffffffffffffffffffffff167f8be0079c531659141344cd1fd0a4f28419497f9722a3daafe3b4186f6b6457e060405160405180910390a35050565b600033905090565b6000819050919050565b61119a81611187565b82525050565b60006040820190506111b56000830185611191565b6111c26020830184611191565b9392505050565b600080fd5b6111d781611187565b81146111e257600080fd5b50565b6000813590506111f4816111ce565b92915050565b600073ffffffffffffffffffffffffffffffffffffffff82169050919050565b6000611225826111fa565b9050919050565b6112358161121a565b811461124057600080fd5b50565b6000813590506112528161122c565b92915050565b6000806040838503121561126f5761126e6111c9565b5b600061127d858286016111e5565b925050602061128e85828601611243565b9150509250929050565b60006112a38261121a565b9050919050565b6112b381611298565b81146112be57600080fd5b50565b6000813590506112d0816112aa565b92915050565b6000602082840312156112ec576112eb6111c9565b5b60006112fa848285016112c1565b91505092915050565b600060208284031215611319576113186111c9565b5b600061132784828501611243565b91505092915050565b6113398161121a565b82525050565b60006020820190506113546000830184611330565b92915050565b60008060408385031215611371576113706111c9565b5b600061137f85828601611243565b9250506020611390858286016111e5565b9150509250929050565b6000819050919050565b60006113bf6113ba6113b5846111fa565b61139a565b6111fa565b9050919050565b60006113d1826113a4565b9050919050565b60006113e3826113c6565b9050919050565b6113f3816113d8565b82525050565b600060208201905061140e60008301846113ea565b92915050565b600061141f826113c6565b9050919050565b61142f81611414565b82525050565b600060208201905061144a6000830184611426565b92915050565b600061145b8261121a565b9050919050565b61146b81611450565b811461147657600080fd5b50565b60008135905061148881611462565b92915050565b6000602082840312156114a4576114a36111c9565b5b60006114b284828501611479565b91505092915050565b6000815190506114ca816111ce565b92915050565b6000602082840312156114e6576114e56111c9565b5b60006114f4848285016114bb565b91505092915050565b7f4e487b7100000000000000000000000000000000000000000000000000000000600052601160045260246000fd5b600061153782611187565b915061154283611187565b9250817fffffffffffffffffffffffffffffffffffffffffffffffffffffffffffffffff048311821515161561157b5761157a6114fd565b5b828202905092915050565b7f4e487b7100000000000000000000000000000000000000000000000000000000600052601260045260246000fd5b60006115c082611187565b91506115cb83611187565b9250826115db576115da611586565b5b828204905092915050565b60006040820190506115fb6000830185611330565b6116086020830184611191565b9392505050565b600082825260208201905092915050565b7f536574206f6e6c79206f6e636500000000000000000000000000000000000000600082015250565b6000611656600d8361160f565b915061166182611620565b602082019050919050565b6000602082019050818103600083015261168581611649565b9050919050565b7f4e4f20746f6b656e7320417661696c61626c6500000000000000000000000000600082015250565b60006116c260138361160f565b91506116cd8261168c565b602082019050919050565b600060208201905081810360008301526116f1816116b5565b9050919050565b600081905092915050565b50565b60006117136000836116f8565b915061171e82611703565b600082019050919050565b600061173482611706565b9150819050919050565b60008115159050919050565b6117538161173e565b811461175e57600080fd5b50565b6000815190506117708161174a565b92915050565b60006020828403121561178c5761178b6111c9565b5b600061179a84828501611761565b91505092915050565b7f5472616e73666572206661696c00000000000000000000000000000000000000600082015250565b60006117d9600d8361160f565b91506117e4826117a3565b602082019050919050565b60006020820190508181036000830152611808816117cc565b9050919050565b600061181a82611187565b915061182583611187565b9250827fffffffffffffffffffffffffffffffffffffffffffffffffffffffffffffffff0382111561185a576118596114fd565b5b828201905092915050565b7f4e6f207472616e736665722068617070656e0000000000000000000000000000600082015250565b600061189b60128361160f565b91506118a682611865565b602082019050919050565b600060208201905081810360008301526118ca8161188e565b9050919050565b60006118dc82611187565b91506118e783611187565b9250828210156118fa576118f96114fd565b5b828203905092915050565b7f4f776e61626c653a206e6577206f776e657220697320746865207a65726f206160008201527f6464726573730000000000000000000000000000000000000000000000000000602082015250565b600061196160268361160f565b915061196c82611905565b604082019050919050565b6000602082019050818103600083015261199081611954565b9050919050565b7f736574206f6e6c79206f6e636500000000000000000000000000000000000000600082015250565b60006119cd600d8361160f565b91506119d882611997565b602082019050919050565b600060208201905081810360008301526119fc816119c0565b9050919050565b7f4f776e61626c653a2063616c6c6572206973206e6f7420746865206f776e6572600082015250565b6000611a3960208361160f565b9150611a4482611a03565b602082019050919050565b60006020820190508181036000830152611a6881611a2c565b905091905056fea26469706673582212206b6b4a0baee3040b5035cf3e3b7a5dd3a63cf6db3d0576b28f76ea47caa5b15064736f6c634300080f0033",
  "immutableReferences": {},
  "source": "// SPDX-License-Identifier: MIT\npragma solidity >=0.4.22 <0.9.0;\n\nimport \"./LpToken.sol\";\nimport \"./SpaceCoin.sol\";\nimport \"../ERC20 /Ownable.sol\";\nimport \"../ERC20 /Math.sol\";\n\ncontract LiquidityPool is Ownable {\n    /*************************************************************************************\n    *@notice Eimt when a user add liquidity to the pool\n    *@param _account address of the liquidity provider\n    */\n    event Addliquidity(address indexed _account);\n    /***********************************************************************\n     *@notice Eimt when a liquidity provider remove liquidity from the pool\n     *@param _account address of the liquidity provider\n     */\n    event Removeliquidity(address indexed _account);\n    /************************************************************************\n     *@notice Eimt when some trade either ETH to Neo Token or Neo Token to ETH\n     *@param _account address of the trader\n     *@param _ethTraded amount of ETH in trade\n     *@param _neoTraded amount of Neo Token in trade\n     */\n    event TokenTrade(address indexed _account, uint256 _tradeEther, uint256 _tradeSpCoin);\n    \n     //instance of LPToken contract \n    LpToken public lptoken;\n     //instance of spaceCoin Token contract\n    SpaceCoin public spaceCoin;\n    //Ether Reserve of the liquidity pool\n    uint256 etherReserve;\n    //SpaceCoin Token Reserve of liquidity pool\n    uint256 SpCoinReserve;\n\n     /****************************************************************************************\n     *@notice set the LPToken contract address to liquidity pool\n     *\n     *@dev developer needs to pass address of LPToken contract\n     *\n     *@param _lptoken address of the LPToken contract\n     *\n     *Requirements\n     *\n     * only owner able to call and set the address of  LPToken contract\n     * address should be set only once after deploying contract\n     */\n    function setLPTokenAddress(LpToken _lptoken) external onlyOwner{\n        require(address(lptoken)== address(0),\"set only once\");\n        lptoken = _lptoken;\n    }\n     /****************************************************************************************\n     *@notice to get the ETH and SpaceCoin Reserve of Liquidity Pool\n     */\n    function getReserves() external view returns(uint256, uint256){\n        return(etherReserve, SpCoinReserve);\n    }\n\n     /********************************************************************************\n     *@notice this function set the SpaceCoin token contract address to liquidity pool\n     *\n     *@dev developer needs to pass address of SpaceCoin contract\n     *\n     *@param _spaceCoin address of the SpaceCoin contract\n     *\n     *Requirements\n     *\n     * only owner able to call and set the address of SpaceCoin contract\n     * address should be set only once after deploying contract\n     */\n    function setSpCoinAddress(SpaceCoin _spaceCoin) external onlyOwner{\n        require(address(spaceCoin)== address(0),\"Set only once\");\n        spaceCoin = _spaceCoin;\n    }\n\n    /********************************************************************************\n     *@notice to swap your ETH to NeoToken or NeoToken to ETH\n     *\n     *@param _account address of person who want ot swap token\n     *@param _spcAmount amount of spaceCoin token user want to swap\n     *\n     */\n    function swap(address _account, uint256 _spcAmount) external payable{\n        uint256 constantProduct = etherReserve * SpCoinReserve;\n        uint256 amountToTransfer;\n\n        if(msg.value == 0){\n            uint256 currentSpacecoinBal = spaceCoin.balanceOf(address(this));\n            uint256 balanceAdded = SpCoinReserve + _spcAmount;\n\n            require(balanceAdded == currentSpacecoinBal, \"No transfer happen\");\n            \n            uint256 x = constantProduct /(currentSpacecoinBal);\n            amountToTransfer = etherReserve - x;\n            (bool success ,) = _account.call{value: amountToTransfer}(\"\");\n            require(success);\n        }else{\n            uint256  y = constantProduct/ (etherReserve + msg.value);\n            amountToTransfer = SpCoinReserve - y;\n            spaceCoin.transfer(_account,amountToTransfer);\n        }\n        emit TokenTrade(_account, msg.value, _spcAmount);\n        _update();\n    }\n\n    /*********************************************************************************\n     *@notice This function deposit liquidity from the liquiditypool\n     *\n     *@param _spcAmount amount od spaceCoin token provided by msg.sender to liquidity Pool \n     *@param _account address of the liquidity provider \n     *Requirements\n     *\n     *msg.sender must have SpaceCoin Token for liquidtity pool.\n     *msg.sender must have Ether for liquidtity pool.\n     */\n    function depositfunds(uint256 _spcAmount, address _account) external payable {\n        uint256 liquidity;\n        uint256 totalSupply = lptoken.balanceOf(_account);\n        uint256 EthAmount = msg.value;\n        \n        if(totalSupply > 0){\n            liquidity = Math.min((EthAmount * totalSupply)/ etherReserve, (_spcAmount * totalSupply)/ SpCoinReserve);\n        }else{\n            liquidity = Math.sqrt(EthAmount * _spcAmount);\n        }\n        lptoken.mint(_account, liquidity);\n        emit Addliquidity(_account);\n        _update();\n\n    }\n\n    /**********************************************************************************\n     *@notice This function withdraw the liquidity from the liquiditypool\n     *\n     *@param _account address of liquidity provider\n     *\n     *msg.sender must have LPToken\n     *\n     */\n    function withdrawfunds(address _account) external  {\n        uint liquidity = lptoken.balanceOf(_account);\n        require(liquidity != 0, \"NO tokens Available\");\n\n        uint256 totalSupply = lptoken.totalSupply();\n\n        uint EthAmount = (etherReserve * liquidity)/ totalSupply;\n        uint spcAmount = (SpCoinReserve * liquidity)/ totalSupply;\n\n        lptoken.burn(_account, liquidity);\n        (bool ethTransferSuccess,)= _account.call{value :EthAmount}(\"\");\n        bool SpaceCoinTransferSuccess = spaceCoin.transfer(_account, spcAmount);\n\n        require(ethTransferSuccess && SpaceCoinTransferSuccess, \"Transfer fail\");\n        emit Removeliquidity(_account);\n        _update();\n    }\n\n    /***********************************************************************************\n    *@notice to update the ethReserve and neoReserve\n    */\n    function _update() private{\n        etherReserve = address(this).balance;\n        SpCoinReserve = spaceCoin.balanceOf(address(this));\n    }\n}\n",
  "sourcePath": "/home/neosoft/project/DEFIex/contracts/LiquidityPool.sol",
  "compiler": {
    "name": "solc",
    "version": "0.8.15+commit.e14f2714.Emscripten.clang"
  },
  "schemaVersion": "3.4.8",
  "updatedAt": "2022-09-14T07:52:32.754Z",
  "devdoc": {
    "kind": "dev",
    "methods": {
      "owner()": {
        "details": "Returns the address of the current owner."
      },
      "renounceOwnership()": {
        "details": "Leaves the contract without owner. It will not be possible to call `onlyOwner` functions anymore. Can only be called by the current owner. NOTE: Renouncing ownership will leave the contract without an owner, thereby removing any functionality that is only available to the owner."
      },
      "transferOwnership(address)": {
        "details": "Transfers ownership of the contract to a new account (`newOwner`). Can only be called by the current owner."
      }
    },
    "version": 1
  },
  "userdoc": {
    "kind": "user",
    "methods": {},
    "version": 1
  }
}