{
  "contractName": "SpaceCoin",
  "abi": [
    {
      "inputs": [],
      "stateMutability": "nonpayable",
      "type": "constructor"
    },
    {
      "anonymous": false,
      "inputs": [
        {
          "indexed": true,
          "internalType": "address",
          "name": "owner",
          "type": "address"
        },
        {
          "indexed": true,
          "internalType": "address",
          "name": "spender",
          "type": "address"
        },
        {
          "indexed": false,
          "internalType": "uint256",
          "name": "value",
          "type": "uint256"
        }
      ],
      "name": "Approval",
      "type": "event"
    },
    {
      "anonymous": false,
      "inputs": [
        {
          "indexed": true,
          "internalType": "address",
          "name": "from",
          "type": "address"
        },
        {
          "indexed": true,
          "internalType": "address",
          "name": "to",
          "type": "address"
        },
        {
          "indexed": false,
          "internalType": "uint256",
          "name": "value",
          "type": "uint256"
        }
      ],
      "name": "Transfer",
      "type": "event"
    },
    {
      "inputs": [],
      "name": "DefiRouter",
      "outputs": [
        {
          "internalType": "address",
          "name": "",
          "type": "address"
        }
      ],
      "stateMutability": "view",
      "type": "function"
    },
    {
      "inputs": [
        {
          "internalType": "address",
          "name": "owner",
          "type": "address"
        },
        {
          "internalType": "address",
          "name": "spender",
          "type": "address"
        }
      ],
      "name": "allowance",
      "outputs": [
        {
          "internalType": "uint256",
          "name": "",
          "type": "uint256"
        }
      ],
      "stateMutability": "view",
      "type": "function"
    },
    {
      "inputs": [
        {
          "internalType": "address",
          "name": "spender",
          "type": "address"
        },
        {
          "internalType": "uint256",
          "name": "amount",
          "type": "uint256"
        }
      ],
      "name": "approve",
      "outputs": [
        {
          "internalType": "bool",
          "name": "",
          "type": "bool"
        }
      ],
      "stateMutability": "nonpayable",
      "type": "function"
    },
    {
      "inputs": [
        {
          "internalType": "address",
          "name": "account",
          "type": "address"
        }
      ],
      "name": "balanceOf",
      "outputs": [
        {
          "internalType": "uint256",
          "name": "",
          "type": "uint256"
        }
      ],
      "stateMutability": "view",
      "type": "function"
    },
    {
      "inputs": [],
      "name": "decimals",
      "outputs": [
        {
          "internalType": "uint8",
          "name": "",
          "type": "uint8"
        }
      ],
      "stateMutability": "pure",
      "type": "function"
    },
    {
      "inputs": [
        {
          "internalType": "address",
          "name": "spender",
          "type": "address"
        },
        {
          "internalType": "uint256",
          "name": "subtractedValue",
          "type": "uint256"
        }
      ],
      "name": "decreaseAllowance",
      "outputs": [
        {
          "internalType": "bool",
          "name": "",
          "type": "bool"
        }
      ],
      "stateMutability": "nonpayable",
      "type": "function"
    },
    {
      "inputs": [
        {
          "internalType": "address",
          "name": "spender",
          "type": "address"
        },
        {
          "internalType": "uint256",
          "name": "addedValue",
          "type": "uint256"
        }
      ],
      "name": "increaseAllowance",
      "outputs": [
        {
          "internalType": "bool",
          "name": "",
          "type": "bool"
        }
      ],
      "stateMutability": "nonpayable",
      "type": "function"
    },
    {
      "inputs": [],
      "name": "name",
      "outputs": [
        {
          "internalType": "string",
          "name": "",
          "type": "string"
        }
      ],
      "stateMutability": "view",
      "type": "function"
    },
    {
      "inputs": [],
      "name": "symbol",
      "outputs": [
        {
          "internalType": "string",
          "name": "",
          "type": "string"
        }
      ],
      "stateMutability": "view",
      "type": "function"
    },
    {
      "inputs": [],
      "name": "tokenOwner",
      "outputs": [
        {
          "internalType": "address",
          "name": "",
          "type": "address"
        }
      ],
      "stateMutability": "view",
      "type": "function"
    },
    {
      "inputs": [],
      "name": "totalSupply",
      "outputs": [
        {
          "internalType": "uint256",
          "name": "",
          "type": "uint256"
        }
      ],
      "stateMutability": "view",
      "type": "function"
    },
    {
      "inputs": [
        {
          "internalType": "address",
          "name": "to",
          "type": "address"
        },
        {
          "internalType": "uint256",
          "name": "amount",
          "type": "uint256"
        }
      ],
      "name": "transfer",
      "outputs": [
        {
          "internalType": "bool",
          "name": "",
          "type": "bool"
        }
      ],
      "stateMutability": "nonpayable",
      "type": "function"
    },
    {
      "inputs": [
        {
          "internalType": "address",
          "name": "from",
          "type": "address"
        },
        {
          "internalType": "address",
          "name": "to",
          "type": "address"
        },
        {
          "internalType": "uint256",
          "name": "amount",
          "type": "uint256"
        }
      ],
      "name": "transferFrom",
      "outputs": [
        {
          "internalType": "bool",
          "name": "",
          "type": "bool"
        }
      ],
      "stateMutability": "nonpayable",
      "type": "function"
    },
    {
      "inputs": [
        {
          "internalType": "address",
          "name": "_DefiRouter",
          "type": "address"
        }
      ],
      "name": "setRouter",
      "outputs": [],
      "stateMutability": "nonpayable",
      "type": "function"
    },
    {
      "inputs": [
        {
          "internalType": "address",
          "name": "_tokenOwner",
          "type": "address"
        },
        {
          "internalType": "address",
          "name": "_spender",
          "type": "address"
        },
        {
          "internalType": "uint256",
          "name": "_amount",
          "type": "uint256"
        }
      ],
      "name": "increaseDRoutAllowance",
      "outputs": [
        {
          "internalType": "bool",
          "name": "",
          "type": "bool"
        }
      ],
      "stateMutability": "nonpayable",
      "type": "function"
    }
  ],
  "bytecode": "0x60806040523480156200001157600080fd5b506040518060400160405280600981526020017f5370616365436f696e00000000000000000000000000000000000000000000008152506040518060400160405280600381526020017f535043000000000000000000000000000000000000000000000000000000000081525081600390816200008f9190620004f0565b508060049081620000a19190620004f0565b50505033600560006101000a81548173ffffffffffffffffffffffffffffffffffffffff021916908373ffffffffffffffffffffffffffffffffffffffff160217905550620000f9336103e8620000ff60201b60201c565b62000714565b600073ffffffffffffffffffffffffffffffffffffffff168273ffffffffffffffffffffffffffffffffffffffff160362000171576040517f08c379a0000000000000000000000000000000000000000000000000000000008152600401620001689062000638565b60405180910390fd5b62000185600083836200026c60201b60201c565b806002600082825462000199919062000689565b92505081905550806000808473ffffffffffffffffffffffffffffffffffffffff1673ffffffffffffffffffffffffffffffffffffffff168152602001908152602001600020600082825401925050819055508173ffffffffffffffffffffffffffffffffffffffff16600073ffffffffffffffffffffffffffffffffffffffff167fddf252ad1be2c89b69c2b068fc378daa952ba7f163c4a11628f55a4df523b3ef836040516200024c9190620006f7565b60405180910390a362000268600083836200027160201b60201c565b5050565b505050565b505050565b600081519050919050565b7f4e487b7100000000000000000000000000000000000000000000000000000000600052604160045260246000fd5b7f4e487b7100000000000000000000000000000000000000000000000000000000600052602260045260246000fd5b60006002820490506001821680620002f857607f821691505b6020821081036200030e576200030d620002b0565b5b50919050565b60008190508160005260206000209050919050565b60006020601f8301049050919050565b600082821b905092915050565b600060088302620003787fffffffffffffffffffffffffffffffffffffffffffffffffffffffffffffffff8262000339565b62000384868362000339565b95508019841693508086168417925050509392505050565b6000819050919050565b6000819050919050565b6000620003d1620003cb620003c5846200039c565b620003a6565b6200039c565b9050919050565b6000819050919050565b620003ed83620003b0565b62000405620003fc82620003d8565b84845462000346565b825550505050565b600090565b6200041c6200040d565b62000429818484620003e2565b505050565b5b8181101562000451576200044560008262000412565b6001810190506200042f565b5050565b601f821115620004a0576200046a8162000314565b620004758462000329565b8101602085101562000485578190505b6200049d620004948562000329565b8301826200042e565b50505b505050565b600082821c905092915050565b6000620004c560001984600802620004a5565b1980831691505092915050565b6000620004e08383620004b2565b9150826002028217905092915050565b620004fb8262000276565b67ffffffffffffffff81111562000517576200051662000281565b5b620005238254620002df565b6200053082828562000455565b600060209050601f83116001811462000568576000841562000553578287015190505b6200055f8582620004d2565b865550620005cf565b601f198416620005788662000314565b60005b82811015620005a2578489015182556001820191506020850194506020810190506200057b565b86831015620005c25784890151620005be601f891682620004b2565b8355505b6001600288020188555050505b505050505050565b600082825260208201905092915050565b7f45524332303a206d696e7420746f20746865207a65726f206164647265737300600082015250565b600062000620601f83620005d7565b91506200062d82620005e8565b602082019050919050565b60006020820190508181036000830152620006538162000611565b9050919050565b7f4e487b7100000000000000000000000000000000000000000000000000000000600052601160045260246000fd5b600062000696826200039c565b9150620006a3836200039c565b9250827fffffffffffffffffffffffffffffffffffffffffffffffffffffffffffffffff03821115620006db57620006da6200065a565b5b828201905092915050565b620006f1816200039c565b82525050565b60006020820190506200070e6000830184620006e6565b92915050565b61172f80620007246000396000f3fe608060405234801561001057600080fd5b50600436106100f55760003560e01c806373942f0a11610097578063a457c2d711610066578063a457c2d71461029e578063a9059cbb146102ce578063c0d78655146102fe578063dd62ed3e1461031a576100f5565b806373942f0a1461021457806395d89b4114610244578063a043302214610262578063a3e6761014610280576100f5565b806323b872dd116100d357806323b872dd14610166578063313ce5671461019657806339509351146101b457806370a08231146101e4576100f5565b806306fdde03146100fa578063095ea7b31461011857806318160ddd14610148575b600080fd5b61010261034a565b60405161010f9190610e56565b60405180910390f35b610132600480360381019061012d9190610f11565b6103dc565b60405161013f9190610f6c565b60405180910390f35b6101506103ff565b60405161015d9190610f96565b60405180910390f35b610180600480360381019061017b9190610fb1565b610409565b60405161018d9190610f6c565b60405180910390f35b61019e610438565b6040516101ab9190611020565b60405180910390f35b6101ce60048036038101906101c99190610f11565b610441565b6040516101db9190610f6c565b60405180910390f35b6101fe60048036038101906101f9919061103b565b610478565b60405161020b9190610f96565b60405180910390f35b61022e60048036038101906102299190610fb1565b6104c0565b60405161023b9190610f6c565b60405180910390f35b61024c61057c565b6040516102599190610e56565b60405180910390f35b61026a61060e565b6040516102779190611077565b60405180910390f35b610288610634565b6040516102959190611077565b60405180910390f35b6102b860048036038101906102b39190610f11565b61065a565b6040516102c59190610f6c565b60405180910390f35b6102e860048036038101906102e39190610f11565b6106d1565b6040516102f59190610f6c565b60405180910390f35b6103186004803603810190610313919061103b565b6106f4565b005b610334600480360381019061032f9190611092565b610859565b6040516103419190610f96565b60405180910390f35b60606003805461035990611101565b80601f016020809104026020016040519081016040528092919081815260200182805461038590611101565b80156103d25780601f106103a7576101008083540402835291602001916103d2565b820191906000526020600020905b8154815290600101906020018083116103b557829003601f168201915b5050505050905090565b6000806103e76108e0565b90506103f48185856108e8565b600191505092915050565b6000600254905090565b6000806104146108e0565b9050610421858285610ab1565b61042c858585610b3d565b60019150509392505050565b60006012905090565b60008061044c6108e0565b905061046d81858561045e8589610859565b6104689190611161565b6108e8565b600191505092915050565b60008060008373ffffffffffffffffffffffffffffffffffffffff1673ffffffffffffffffffffffffffffffffffffffff168152602001908152602001600020549050919050565b6000600660009054906101000a900473ffffffffffffffffffffffffffffffffffffffff1673ffffffffffffffffffffffffffffffffffffffff163373ffffffffffffffffffffffffffffffffffffffff1614610552576040517f08c379a000000000000000000000000000000000000000000000000000000000815260040161054990611203565b60405180910390fd5b6105718484846105623330610859565b61056c9190611161565b6108e8565b600190509392505050565b60606004805461058b90611101565b80601f01602080910402602001604051908101604052809291908181526020018280546105b790611101565b80156106045780601f106105d957610100808354040283529160200191610604565b820191906000526020600020905b8154815290600101906020018083116105e757829003601f168201915b5050505050905090565b600660009054906101000a900473ffffffffffffffffffffffffffffffffffffffff1681565b600560009054906101000a900473ffffffffffffffffffffffffffffffffffffffff1681565b6000806106656108e0565b905060006106738286610859565b9050838110156106b8576040517f08c379a00000000000000000000000000000000000000000000000000000000081526004016106af90611295565b60405180910390fd5b6106c582868684036108e8565b60019250505092915050565b6000806106dc6108e0565b90506106e9818585610b3d565b600191505092915050565b600560009054906101000a900473ffffffffffffffffffffffffffffffffffffffff1673ffffffffffffffffffffffffffffffffffffffff163373ffffffffffffffffffffffffffffffffffffffff1614610784576040517f08c379a000000000000000000000000000000000000000000000000000000000815260040161077b90611327565b60405180910390fd5b600073ffffffffffffffffffffffffffffffffffffffff16600660009054906101000a900473ffffffffffffffffffffffffffffffffffffffff1673ffffffffffffffffffffffffffffffffffffffff1614610815576040517f08c379a000000000000000000000000000000000000000000000000000000000815260040161080c90611393565b60405180910390fd5b80600660006101000a81548173ffffffffffffffffffffffffffffffffffffffff021916908373ffffffffffffffffffffffffffffffffffffffff16021790555050565b6000600160008473ffffffffffffffffffffffffffffffffffffffff1673ffffffffffffffffffffffffffffffffffffffff16815260200190815260200160002060008373ffffffffffffffffffffffffffffffffffffffff1673ffffffffffffffffffffffffffffffffffffffff16815260200190815260200160002054905092915050565b600033905090565b600073ffffffffffffffffffffffffffffffffffffffff168373ffffffffffffffffffffffffffffffffffffffff1603610957576040517f08c379a000000000000000000000000000000000000000000000000000000000815260040161094e90611425565b60405180910390fd5b600073ffffffffffffffffffffffffffffffffffffffff168273ffffffffffffffffffffffffffffffffffffffff16036109c6576040517f08c379a00000000000000000000000000000000000000000000000000000000081526004016109bd906114b7565b60405180910390fd5b80600160008573ffffffffffffffffffffffffffffffffffffffff1673ffffffffffffffffffffffffffffffffffffffff16815260200190815260200160002060008473ffffffffffffffffffffffffffffffffffffffff1673ffffffffffffffffffffffffffffffffffffffff168152602001908152602001600020819055508173ffffffffffffffffffffffffffffffffffffffff168373ffffffffffffffffffffffffffffffffffffffff167f8c5be1e5ebec7d5bd14f71427d1e84f3dd0314c0f7b2291e5b200ac8c7c3b92583604051610aa49190610f96565b60405180910390a3505050565b6000610abd8484610859565b90507fffffffffffffffffffffffffffffffffffffffffffffffffffffffffffffffff8114610b375781811015610b29576040517f08c379a0000000000000000000000000000000000000000000000000000000008152600401610b2090611523565b60405180910390fd5b610b3684848484036108e8565b5b50505050565b600073ffffffffffffffffffffffffffffffffffffffff168373ffffffffffffffffffffffffffffffffffffffff1603610bac576040517f08c379a0000000000000000000000000000000000000000000000000000000008152600401610ba3906115b5565b60405180910390fd5b600073ffffffffffffffffffffffffffffffffffffffff168273ffffffffffffffffffffffffffffffffffffffff1603610c1b576040517f08c379a0000000000000000000000000000000000000000000000000000000008152600401610c1290611647565b60405180910390fd5b610c26838383610db3565b60008060008573ffffffffffffffffffffffffffffffffffffffff1673ffffffffffffffffffffffffffffffffffffffff16815260200190815260200160002054905081811015610cac576040517f08c379a0000000000000000000000000000000000000000000000000000000008152600401610ca3906116d9565b60405180910390fd5b8181036000808673ffffffffffffffffffffffffffffffffffffffff1673ffffffffffffffffffffffffffffffffffffffff16815260200190815260200160002081905550816000808573ffffffffffffffffffffffffffffffffffffffff1673ffffffffffffffffffffffffffffffffffffffff168152602001908152602001600020600082825401925050819055508273ffffffffffffffffffffffffffffffffffffffff168473ffffffffffffffffffffffffffffffffffffffff167fddf252ad1be2c89b69c2b068fc378daa952ba7f163c4a11628f55a4df523b3ef84604051610d9a9190610f96565b60405180910390a3610dad848484610db8565b50505050565b505050565b505050565b600081519050919050565b600082825260208201905092915050565b60005b83811015610df7578082015181840152602081019050610ddc565b83811115610e06576000848401525b50505050565b6000601f19601f8301169050919050565b6000610e2882610dbd565b610e328185610dc8565b9350610e42818560208601610dd9565b610e4b81610e0c565b840191505092915050565b60006020820190508181036000830152610e708184610e1d565b905092915050565b600080fd5b600073ffffffffffffffffffffffffffffffffffffffff82169050919050565b6000610ea882610e7d565b9050919050565b610eb881610e9d565b8114610ec357600080fd5b50565b600081359050610ed581610eaf565b92915050565b6000819050919050565b610eee81610edb565b8114610ef957600080fd5b50565b600081359050610f0b81610ee5565b92915050565b60008060408385031215610f2857610f27610e78565b5b6000610f3685828601610ec6565b9250506020610f4785828601610efc565b9150509250929050565b60008115159050919050565b610f6681610f51565b82525050565b6000602082019050610f816000830184610f5d565b92915050565b610f9081610edb565b82525050565b6000602082019050610fab6000830184610f87565b92915050565b600080600060608486031215610fca57610fc9610e78565b5b6000610fd886828701610ec6565b9350506020610fe986828701610ec6565b9250506040610ffa86828701610efc565b9150509250925092565b600060ff82169050919050565b61101a81611004565b82525050565b60006020820190506110356000830184611011565b92915050565b60006020828403121561105157611050610e78565b5b600061105f84828501610ec6565b91505092915050565b61107181610e9d565b82525050565b600060208201905061108c6000830184611068565b92915050565b600080604083850312156110a9576110a8610e78565b5b60006110b785828601610ec6565b92505060206110c885828601610ec6565b9150509250929050565b7f4e487b7100000000000000000000000000000000000000000000000000000000600052602260045260246000fd5b6000600282049050600182168061111957607f821691505b60208210810361112c5761112b6110d2565b5b50919050565b7f4e487b7100000000000000000000000000000000000000000000000000000000600052601160045260246000fd5b600061116c82610edb565b915061117783610edb565b9250827fffffffffffffffffffffffffffffffffffffffffffffffffffffffffffffffff038211156111ac576111ab611132565b5b828201905092915050565b7f4e6f74204465666920526f757465720000000000000000000000000000000000600082015250565b60006111ed600f83610dc8565b91506111f8826111b7565b602082019050919050565b6000602082019050818103600083015261121c816111e0565b9050919050565b7f45524332303a2064656372656173656420616c6c6f77616e63652062656c6f7760008201527f207a65726f000000000000000000000000000000000000000000000000000000602082015250565b600061127f602583610dc8565b915061128a82611223565b604082019050919050565b600060208201905081810360008301526112ae81611272565b9050919050565b7f2055736572206973206e6f74206f776e6572206f66207468652053706163654360008201527f6f696e20746f6b656e0000000000000000000000000000000000000000000000602082015250565b6000611311602983610dc8565b915061131c826112b5565b604082019050919050565b6000602082019050818103600083015261134081611304565b9050919050565b7f7772697474656e206f6e6c79206f6e6365000000000000000000000000000000600082015250565b600061137d601183610dc8565b915061138882611347565b602082019050919050565b600060208201905081810360008301526113ac81611370565b9050919050565b7f45524332303a20617070726f76652066726f6d20746865207a65726f2061646460008201527f7265737300000000000000000000000000000000000000000000000000000000602082015250565b600061140f602483610dc8565b915061141a826113b3565b604082019050919050565b6000602082019050818103600083015261143e81611402565b9050919050565b7f45524332303a20617070726f766520746f20746865207a65726f20616464726560008201527f7373000000000000000000000000000000000000000000000000000000000000602082015250565b60006114a1602283610dc8565b91506114ac82611445565b604082019050919050565b600060208201905081810360008301526114d081611494565b9050919050565b7f45524332303a20696e73756666696369656e7420616c6c6f77616e6365000000600082015250565b600061150d601d83610dc8565b9150611518826114d7565b602082019050919050565b6000602082019050818103600083015261153c81611500565b9050919050565b7f45524332303a207472616e736665722066726f6d20746865207a65726f20616460008201527f6472657373000000000000000000000000000000000000000000000000000000602082015250565b600061159f602583610dc8565b91506115aa82611543565b604082019050919050565b600060208201905081810360008301526115ce81611592565b9050919050565b7f45524332303a207472616e7366657220746f20746865207a65726f206164647260008201527f6573730000000000000000000000000000000000000000000000000000000000602082015250565b6000611631602383610dc8565b915061163c826115d5565b604082019050919050565b6000602082019050818103600083015261166081611624565b9050919050565b7f45524332303a207472616e7366657220616d6f756e742065786365656473206260008201527f616c616e63650000000000000000000000000000000000000000000000000000602082015250565b60006116c3602683610dc8565b91506116ce82611667565b604082019050919050565b600060208201905081810360008301526116f2816116b6565b905091905056fea2646970667358221220ce153da79772b0156b4ae3838e4637fea6dcf9519f52c933176eb0ea30663ebf64736f6c634300080f0033",
  "immutableReferences": {},
  "source": "// SPDX-License-Identifier: MIT\npragma solidity >=0.4.22 <0.9.0;\n\nimport \"../ERC20 /ERC20.sol\";\n\ncontract SpaceCoin is ERC20{\n    //owner address of spacecoin contract\n    address public tokenOwner;\n\n    //owner address of DeFiRouter contract\n    address public DefiRouter;\n\n    /** \n    *@dev provide the name and the symbol of the token\n    */\n    constructor() ERC20 (\"SpaceCoin\",\"SPC\"){\n        tokenOwner = msg.sender;\n        _mint(msg.sender, 1000);\n    }\n\n    //to check whether msg.sender is owner of SpaceCoin contract or not.\n    modifier onlyOwner(){\n        require(msg.sender == tokenOwner, \" User is not owner of the SpaceCoin token\");\n        _;\n    } \n\n    //to check whether msg.sender is DefiRouter or not.\n    modifier onlyDefiRouter(){\n        require(msg.sender == DefiRouter, \"Not Defi Router\");\n        _;\n    }\n    \n    /***\n    * @notice This function set the address of DefiRouter.\n    * \n    * @dev developer needs to pass the address DefiRouter.\n    *\n    * @param _DefiRouter address of the  DefiRouter\n    *\n    * only owner of this contract will be able top call and set the address of the router\n    * address is set only once after Deploying the contract\n    **/\n    function setRouter(address _DefiRouter) external onlyOwner{\n        require(DefiRouter == address(0) , \"written only once\");\n        DefiRouter = _DefiRouter;\n    }\n\n    /***\n    * @notice This function set the allowance to Defirouter from msg.sender.\n    * \n    * @dev developer needs to pass the address of DefiRouter.\n    *\n    * @param _tokenOwner address of the msg.sender\n    * @param _spender address of the Defirouter\n    * @param _amount amount that msg.sender need to allow to spend to the Defirouter.\n    * only DefiRouter contract will be able to call\n    * @return bool for Allowance success \n    **/\n    function increaseDRoutAllowance(address _tokenOwner, address _spender, uint256 _amount) public onlyDefiRouter returns(bool){\n        _approve(_tokenOwner, _spender, allowance(msg.sender, address(this))+ _amount);\n        return true;\n    }\n    \n}\n",
  "sourcePath": "/home/neosoft/project/DEFIex/contracts/SpaceCoin.sol",
  "compiler": {
    "name": "solc",
    "version": "0.8.15+commit.e14f2714.Emscripten.clang"
  },
  "schemaVersion": "3.4.8",
  "updatedAt": "2022-09-14T07:52:32.785Z",
  "devdoc": {
    "kind": "dev",
    "methods": {
      "allowance(address,address)": {
        "details": "See {IERC20-allowance}."
      },
      "approve(address,uint256)": {
        "details": "See {IERC20-approve}. NOTE: If `amount` is the maximum `uint256`, the allowance is not updated on `transferFrom`. This is semantically equivalent to an infinite approval. Requirements: - `spender` cannot be the zero address."
      },
      "balanceOf(address)": {
        "details": "See {IERC20-balanceOf}."
      },
      "constructor": {
        "details": "provide the name and the symbol of the token"
      },
      "decimals()": {
        "details": "Returns the number of decimals used to get its user representation. For example, if `decimals` equals `2`, a balance of `505` tokens should be displayed to a user as `5.05` (`505 / 10 ** 2`). Tokens usually opt for a value of 18, imitating the relationship between Ether and Wei. This is the value {ERC20} uses, unless this function is overridden; NOTE: This information is only used for _display_ purposes: it in no way affects any of the arithmetic of the contract, including {IERC20-balanceOf} and {IERC20-transfer}."
      },
      "decreaseAllowance(address,uint256)": {
        "details": "Atomically decreases the allowance granted to `spender` by the caller. This is an alternative to {approve} that can be used as a mitigation for problems described in {IERC20-approve}. Emits an {Approval} event indicating the updated allowance. Requirements: - `spender` cannot be the zero address. - `spender` must have allowance for the caller of at least `subtractedValue`."
      },
      "increaseAllowance(address,uint256)": {
        "details": "Atomically increases the allowance granted to `spender` by the caller. This is an alternative to {approve} that can be used as a mitigation for problems described in {IERC20-approve}. Emits an {Approval} event indicating the updated allowance. Requirements: - `spender` cannot be the zero address."
      },
      "name()": {
        "details": "Returns the name of the token."
      },
      "symbol()": {
        "details": "Returns the symbol of the token, usually a shorter version of the name."
      },
      "totalSupply()": {
        "details": "See {IERC20-totalSupply}."
      },
      "transfer(address,uint256)": {
        "details": "See {IERC20-transfer}. Requirements: - `to` cannot be the zero address. - the caller must have a balance of at least `amount`."
      },
      "transferFrom(address,address,uint256)": {
        "details": "See {IERC20-transferFrom}. Emits an {Approval} event indicating the updated allowance. This is not required by the EIP. See the note at the beginning of {ERC20}. NOTE: Does not update the allowance if the current allowance is the maximum `uint256`. Requirements: - `from` and `to` cannot be the zero address. - `from` must have a balance of at least `amount`. - the caller must have allowance for ``from``'s tokens of at least `amount`."
      }
    },
    "version": 1
  },
  "userdoc": {
    "kind": "user",
    "methods": {},
    "version": 1
  }
}